:10000000F85F002011040000892100008921000010
:100010008921000089210000892100008921000038
:100020008921000089210000892100008921000028
:100030008921000089210000892100008921000018
:100040008921000089210000892100008921000008
:10040000FFFFFFFFFFFFFFFFFFFFFFFFFEFFFFFFFD
:1004100062B603F065FAFEE7F1B5A4B014001F0060
:1004200014ADA9600020E8620AE0A868249A904709
:10043000A860002800D1CFE2E86A401CE862641C92
:100440002178080001D1E86AC8E22529EDD1002011
:100450006861A861E86128626862A86202E0010040
:1004600001200843641C21782029F8D023290ED0CC
:100470002B2904D02D2907D030290BD00DE0010005
:100480000220084380B2EDE701000420F9E70100F3
:100490000820F6E701001020F3E72A290FD1396878
:1004A00039600A68091D39606A63002A05D551421E
:1004B000696301000420084380B2641C12E000213B
:1004C00069630AE06A6B794B9A4205D093009A18E7
:1004D0005200511830396963641C21780A00303A9F
:1004E0000A2AEFD321782E2903D00021C94329639A
:1004F0001EE0641C21782A2907D1396839600A680E
:10050000091D39602A63641C12E0002129630AE096
:100510002A6B664B9A4205D093009A1852005118E4
:1005200030392963641C21780A00303A0A2AEFD353
:10053000288726783100044878440C3000F0DDFE2E
:10054000002803D0641C02E0C438000000263A20D2
:100550002E54285C682804D12178682901D16220B2
:1005600005E06C2806D120786C2803D171203A214F
:100570006854641C05A828612678641C300025385E
:100580002AD01C3800D1D8E0001F022800D8D4E0BF
:10059000133800D1F6E0093800D1CEE0801E00D13A
:1005A0005AE1401E00D134E1401E022800D8C4E0C8
:1005B000001F00D12DE1401F00D190E0401E00D16E
:1005C000E0E0401E27D0C01E0BD0801E00D1D9E035
:1005D000C01E00D1D6E049E12520694608750120FA
:1005E0004EE1386838600168001D3860E9602E6BA4
:1005F000002E03D5084600F08AFE0AE032000021F2
:10060000E86800F08CFE002802D0E968401A00E09B
:100610003000A86135E1386838600268001D386034
:100620000020C0430021104014AA03C205A8E860BE
:10063000286900903C2214A803C802AB03C302A897
:1006400003C8002904D1002802D1286B00281DD03E
:10065000521E02A803C80007000F3030C0B23A286B
:1006600000DB27300099885402A803C800090B0753
:100670001843090902AB03C302A803C801D100282B
:1006800004D0E868009989188842E1D33C20801A98
:10069000A86100998918E960296B88420ADA081A6A
:1006A0002862288F024901402987EAE0FFFFFF7F87
:1006B000EFFF0000002900D4E3E03821695C142238
:1006C0000A40102A00D0DCE0696B6A69891A2A6A3C
:1006D000891A0A1A012A00DAD3E02A62D1E03A2004
:1006E000285C622819D0682806D06A280CD06C28AB
:1006F0001BD0712808D018E0386838600168001DE8
:100700003860E86A0880BCE0386838600268001D1C
:100710003860E86AC11703C2B3E03868386001681E
:10072000001D3860E86A0870ABE03868386001681E
:10073000001D3860E86A0860A3E03A68D21D07200F
:1007400082433A6003CA3A6014AA03C2002902D560
:1007500068692D2109E0288F810702D568692B215E
:1007600003E0C00705D56869202105AA1154401C83
:10077000686105A869694018E860310014A800F0B4
:10078000FBF97EE03A20285C6C280BD0712801D060
:100790006A2807D13A68D21D072082433A6003CA0B
:1007A0003A6005E0396839600868091D3960002140
:1007B00014AA03C23A20285C682803D114A803C8ED
:1007C00080B20BE0622803D114A803C8C0B205E0D0
:1007D000742801D07A2804D114A803C8002114AACF
:1007E00003C23820285C00072DD514A803C80029AF
:1007F00001D1002827D020203043782823D16869F0
:10080000302105AA1154401C411C696105A90E54F0
:1008100019E039003A20285C00F0E2F814AA03C27B
:10082000002902DA68692D2109E0288F810702D5A5
:1008300068692B2103E0C00705D56869202105AA56
:100840001154401C686105A869694018E8603100CE
:1008500014A800F0F9F814E00120686138683860E5
:100860000168001D3860684601750AE02520694668
:10087000087501206861300003D005A84670022089
:100880006861686B6969401A296A401AA969401A47
:10089000696A401AE969401AA96A401A0490382026
:1008A000285C400711D4202069460871049801286B
:1008B0000BDB049E012301AA14A9249800F005FD76
:1008C000002800D088E0761EF4D1686905AE0028C3
:1008D0000FD000903178A868249A9047A86000282B
:1008E0007AD0E86A401CE862761C0098401E0090AE
:1008F000F0D13020694608712E6A012E09DB0123F0
:1009000001AA14A9249800F0E0FC002864D1761E06
:10091000F5D1EE68A86900280FD000903178A8685A
:10092000249A9047A860002856D0E86A401CE862E4
:10093000761C0098401E0090F0D130206946087166
:100940006E6A012E09DB012301AA14A9249800F084
:10095000BCFC002840D1761EF5D1E868A96946188C
:10096000E86900280FD000903178A868249A904751
:10097000A860002830D0E86A401CE862761C009825
:10098000401E0090F0D1302069460871AE6A012EF9
:1009900009DB012301AA14A9249800F096FC002881
:1009A0001AD1761EF5D13820285C400700D447E5DF
:1009B0002020694608710498012800DA40E5049E69
:1009C000012301AA14A9249800F07FFC002803D178
:1009D000761E00D134E5F3E70020C04325B0F0BD1A
:1009E0000A00622822D0682819D06A2808D06C280A
:1009F00023D0712804D074281FD07A2808D01CE096
:100A00001368DB1D07208343136003CB136070471B
:100A1000116811600868091D116000217047116894
:100A200011600868091D116000B20BE011681160C7
:100A30000868091D116040B204E01168116008687F
:100A4000091D1160C1177047F3B583B000690090AC
:100A50006846027C6F2A01D1082406E02021114358
:100A6000782901D00A2400E010243C25039803C80B
:100A700006000F00642A01D0692A07D1002905DA8F
:100A800000200021801BB94106000F00002F10D16B
:100A9000002E0ED10398006B00280AD1082C3AD101
:100AA00003983821405C000735D53B25302000995C
:100AB00030E06D1E0195300039002200E31700F090
:100AC0003AFC3032D2B23A2A03DB6846007C513815
:100AD000121800984255300039002200E31700F048
:100AE0002AFC06000F0001D1002E05D00398C06833
:100AF000009949198842DCD3082C0CD1039838217D
:100B0000405C000707D50098405D302803D06D1E7B
:100B10003020009948553C20401B0399886100997A
:100B20004919039AD1600399096B884209DA081AB6
:100B3000039908620398008F0E49014003980187CA
:100B400015E0002913D503993822895C14220A4044
:100B5000102A0CD10399496B039A5269891A039A96
:100B6000126A891A0D1A012D01DB0398056205B07E
:100B7000F0BD0000EFFF0000F3B591B006AA03C876
:100B800002AB03C312A80078202101430091612920
:100B90000BD01198006B002801D5062003E004D18A
:100BA000672902D10120119908631198406841001A
:100BB000490DA64B994225D1000310D11198006828
:100BC00000280CD103201199886112A8007861389F
:100BD0001A283AD31F4878447A3000900BE003205B
:100BE0001199886112A8007861381A2829D31A4807
:100BF000784464300090032200991198C06800F096
:100C0000CFFBE9E1012919DB914B034091481843DF
:100C1000119B586090480D1A0026F64300986128F1
:100C200027D11198C06830210170811C119BD960B7
:100C300012A90978612915D1782114E00026002530
:100C4000ECE7064878441430D4E70548784410307F
:100C5000C3E700BFCC310000C0310000B831000054
:100C6000BC3100005821417011984069801C1199D5
:100C70004861002E03D1002468468680A3E10098D5
:100C8000612800D09EE01198046B002C01D521242E
:100C900000E0641C24B2601C00901198C0C802A837
:100CA00003C80022002300F0A9FB02D28020000626
:100CB000474002A8C0C0281F6946888000260E76DB
:100CC00006A8471C0098012835DB02A803C80022AB
:100CD00080235B0300F0ABFB2DD81C2102A800F0A1
:100CE000BFFB02A803C800F0FBFB05000098C01F73
:100CF000009001280ADB280000F01CFC02000B0019
:100D000002A803C800F08DFC02AA03C2F81D072147
:100D100004E0401E2A07120F02702D11012D01DB85
:100D2000491EF6D5491E02D4401E0670FAE7C71DBB
:100D300000980128C9DA06A8401C391A06A8421CE6
:100D4000A14200DA0C0024B2200032D4884205DA35
:100D500006A909184978082900DB0F2606A90918F1
:100D600001E0641E491E401E0B78B342F9D00F2EDD
:100D700004D106A909184B785B1C4B70002806D5D6
:100D800006AA641C019800B2001D6946888024B23E
:100D9000601E0ED411180B783033DBB23A2B03DB14
:100DA00012AD2D783A3D5B190B70401E491E00288C
:100DB000F1D51198006B002800D404E1601E119950
:100DC000086300E102A803C80022002300F016FB1C
:100DD00006D202A803C880221206514002AA03C20A
:100DE0002DB27E4868437E4900F0A8FC69468880A1
:100DF0000720019909B2421A00207A49012A20DB12
:100E0000049202AA30CA00260F000498C00707D532
:100E100032003B002000290000F0EAFC04000D0035
:100E20000498401004903000390032003B0000F07C
:100E3000DFFC06000F0004980028E6D102A830C0AD
:100E400029E054420026684F19E000BFFF07000068
:100E5000FFFF0F800000E03FFE030000E00707D522
:100E600004A803C832003B0000F0C2FC06000F00DB
:100E7000641004A803C804AA0CCA00F0B9FC04AAB0
:100E800003C2002CEAD102A803C832003B0000F0E4
:100E900071FD02AA03C20098662803D1019800B22E
:100EA0000A3000E006201199096B081804901428F4
:100EB00001DB1320049030206946087606A8441C04
:100EC000049801283BDB02A803C800F01BFB0600C6
:100ED0000834042530000A2100F033FC0F003000F4
:100EE0000A2100F02EFC06003037601E077030002B
:100EF0000A2100F026FC0F0030000A2100F021FC3E
:100F00000600A41E303727706D1EE3D10834049804
:100F1000083804900128D3DB02A803C800F0F2FAD5
:100F200000F012FB02000B0002A803C800F079FBDE
:100F300000222E4B00F05CFC02AA03C2C3E706A805
:100F4000401C201A06A94A1C6B4605E0401E019968
:100F500009B2491E9980521C11783029F6D00099A7
:100F6000662903D1019909B2491C04E0652901D120
:100F7000012100E00021119B1B6B5C1824B2A042F0
:100F800000DA040024B221001DD4814204DA505C4E
:100F9000352801DB392000E03020531800E0641EC2
:100FA0005B1E491E1D788542F9D0392802D1505C5C
:100FB000401C5054002906D5521E641C019800B2F2
:100FC000401C69468880019800B2009023B212A8A4
:100FD0000178119800F00CF813B0F0BD977500007F
:100FE000A0860100000024400000F03F84D7974114
:100FF000F3B587B015001C0000F037FD0090406A83
:101000000078694608710798076B012C01DA012402
:10101000ADA508A80178202008430E9E662801D1BE
:10102000761C17E0672800D09EE00321C9438E425A
:1010300000DA9DE0BE4200DB9AE0761C079838217A
:10104000405C000702D4BC4200DA270036B2BF1B66
:1010500000D50027079880690799C9680918009189
:1010600036B2012E2EDA401C3021009A1170012F69
:1010700004DA07993822895C090705D56946097998
:10108000079AD2681154401C0799886170428742C0
:1010900000DA7E4236B2704207994862BF19A74211
:1010A00000DA3C0024B20798C461220029000798A6
:1010B000C068079B9B69C01800F072F9381B07993C
:1010C0008862E2E0B44220DA22002900009800F0B1
:1010D00067F9079989690919079A9161301B079A7D
:1010E0005062012F04DA07983822805C000709D586
:1010F00068460079079AD26850540798C069401C26
:101100000799C86107988762BFE0320029000098FC
:1011100000F046F9079880698019A41B012F04DAB2
:1011200007993822895C090705D569460979079A24
:10113000D2681154401C0799886124B2A74200DA92
:101140003C0024B22200A9190798C068079B9B693C
:10115000C01800F025F9079880690019079988617F
:10116000381B0799486290E0612914D1702015E07E
:10117000BC4205DA07993822895C090700D42700A8
:101180007F1E00D5002708A80078672801D16520B8
:1011900004E0452002E0412902D1502008A908704E
:1011A00007988069411C079A91612978079AD2684B
:1011B0001154681C0090012F04DA07983821405C14
:1011C000000720D507988169481C079A90616A46F4
:1011D0001279079BDB685A54012F14DB641E24B27A
:1011E000A74200DA3C0024B222000099079BDB688A
:1011F000181800F0D5F807988069001907998861D8
:10120000381B079948620798C0680799896941188F
:1012100008A800780870300003D42B2048708D1C7B
:1012200003E02D224A708D1C4642002404AF08E0E2
:101230000A2202A800F034FC03983870029E641C55
:101240007F1C31B20129F3DA022C08DA08A80078F1
:1012500020210143652902D1302028706D1C002C0B
:1012600009D1302028706D1C07E0641E04A8005DC1
:10127000303028706D1C012CF7DA0798C068079988
:1012800089694018281A0799C86107983821405C75
:1012900014210140102914D10798406907998969E0
:1012A00040180799496A40180799C9694018079971
:1012B000896A40180799496B884202DA081A079927
:1012C000086209B0F0BD00003000F1B50E00140056
:1012D0000027002B0FD01D002178B068009A90479E
:1012E000B060002806D0F06A401CF062641C6D1EDD
:1012F00001D0F1E7FF433800F2BDC9B200E0401C65
:1013000002788A4202D0002AF9D1002070470100F9
:1013100000E0491C0A78002AFBD1081A7047C9B2BC
:1013200001E0401C521E002A03D003788B42F8D102
:10133000704700207047124224D0994228D970B5D6
:1013400000251B4202D00C00002109E000240126E8
:1013500049186441944200D3A41A7641F8D331006D
:10136000012601E0764109D2001864416D41A41ABA
:101370009D41F7D2A4185D41B619F5D33000220083
:101380002B0070BD1B42D8D108B500F099FB08BDF9
:1013900001D19042D3D202000B00002100207047FF
:1013A000124207D08B0706D00B78491C0370401CF3
:1013B000521EF7D87047830706D00B78491C03707C
:1013C000401C521EF9D1704770B4103A03D378C94B
:1013D000103A78C0FBD2530701D318C918C001D501
:1013E00008C908C0D20704D30B880380891C801C5D
:1013F000002A01D50B78037070BC704730B401240B
:1014000064054D00EC420BD85D00EC4208D80C009E
:101410001C4364000443144304D2994200D1904217
:1014200030BC7047FCD08B42FAD18242F8E730B42E
:10143000012464054D00EC420BD85D00EC4208D855
:101440000C001C4364000443144304D28B4200D1BB
:10145000824230BC7047FCD09942FAD19042F8E702
:1014600010B4020050684000400D194B984207D15B
:101470005068000302D11068002811D0022025E036
:10148000002823D001290DDB1B1A99420AD350688A
:10149000002802D500200F4901E000200E4903C2B8
:1014A000012013E043428B4209DA53680B4C1C4085
:1014B00008180005204350600020C04306E0506833
:1014C00080210906084050600020106010BC704761
:1014D000FF0700000000F0FF0000F07FFFFF0F801B
:1014E000F4464A1805D200F00FF801D580174008DD
:1014F000604700F009F80121C907884200D90800B7
:10150000404260474A1812D2400DC90208430121E7
:10151000C9070843520D40210901521A521C06D432
:1015200052421F3201D4D0407047C017704700208C
:101530007047FF00010009D5F446404200F006F86C
:101540000122D20711436047010000BF422212016D
:10155000D21E004207D002D4521E0018FCD5C10A88
:1015600040051205891870478B4200D1824205D987
:101570008446100062468C4619006346DF184C18FA
:10158000640D7F0D3AD0661C760537D0E61B352EEC
:1015900034DCDB022B43DB0A0C0DC9022943C912E0
:1015A000202E0DDB1700203E06D01F00F741F34030
:1015B0005F400026012A7741C01871410DD217E023
:1015C0001700F741F2405740F3415A40B340F3400F
:1015D0005A400026801859410AD3A21C52050FD048
:1015E000C207012F724117004008CB071843490872
:1015F000641C24054208AF4170416141F0BC704752
:10160000641C21050020F9E76B4010E06B40ABE75C
:10161000F742F3D1E943F1E72442EFD10020002162
:10162000ECE7F0B40125ED070F005F40EED40C00AD
:10163000871A9C4105D2C01BA141D2196341694060
:101640006B40AE0ADF184C18F442E1D2640D7F0DF6
:10165000E2D0E61B362ED1DCDB022B43DB0AA446AC
:101660000C0DC9022943C90A012E28DC04D1D60772
:101670005208DF073A435B08EF0A764290419941EE
:1016800014D039423BD1B61940414941761C394208
:1016900004D1761C001849413942FAD0B943674653
:1016A000B74208D9A41B24052143A7E70042EAD189
:1016B0003642E8D1A2E7E40AE10700209EE7202EA7
:1016C0000BDD203E1F00F340F7415F40012A00225E
:1016D00057417E42984191410BE01700F741F2409B
:1016E0005740F3415A40B340F3405A407E42904144
:1016F00099410A0303D2641EB619404149410027AB
:10170000641E24054208AE4178416141F0BC704737
:10171000F446002804D4494200F013F840426047E0
:101720004042002905D45FD000F00BF84042494206
:101730006047494200F005F84942604703460B43C1
:10174000E6D40022030A8B420BD203098B4219D242
:1017500043088B422ED2411A00D201465241104614
:101760007047FF2209023FD012068B4205D31212A6
:1017700009028B4201D31212090203098B4219D3C9
:1017800000E0090AC3098B4201D3CB01C01A5241C0
:1017900083098B4201D38B01C01A524143098B420A
:1017A00001D34B01C01A524103098B4201D30B01F3
:1017B000C01A5241C3088B4201D3CB00C01A524118
:1017C00083088B4201D38B00C01A524143088B42DD
:1017D00001D34B00C01A5241884200D3401A5241F3
:1017E000CFD201461046704708B500F06BF908BD2E
:1017F000F0B50E005E400125ED072E40B446AE0A5E
:10180000DF184C18F44208D2F7420ED2640D01D012
:101810007F0D12D100206146F0BD05D1F74201D8FD
:101820007F0D05D10020C143F0BDFBD1640DF9D07F
:101830000020C143490549088FE0E419C902DB02D1
:1018400029432B43DB0A460DC00231438E4630B498
:1018500087B295B27D432E0CADB2140C7C43A41913
:10186000260C240425439CB27C43A419190C79430B
:10187000270CC919A4B20F043C43090C000C97B201
:1018800047432E0CBE193543ADB2170C4743360CF7
:10189000BF19A6B2BF193E043543240C3E0C3619BD
:1018A0009FB24743BF19BCB23E0C89191F0C474376
:1018B0007F183E043443390C704680B297B24743D8
:1018C0002E0CBE193543ADB2170C4743360CBF1969
:1018D000A6B2BF193E043543240C3E0C36199FB204
:1018E0004743BF19BCB23E0C89191F0C47437F18F0
:1018F0003E043443390C77463F0C90B278432E0CAB
:1019000080190604ADB22E43050CA0B22D18120C9E
:101910007A435019020C80B2240CA4189AB27A436C
:10192000121914042043120C89181B0C7B43C9188C
:1019300030BCEF0A394203D1B61940414941641E17
:101940006F12BF0DE41B0BDBFF19BC4211DA24053B
:1019500000274208AE417841614166463143F0BDFF
:10196000641C05D1401C6141CF0201D34908F4E752
:1019700050E75DE7F0B40E005E400125ED072E4014
:10198000B446AE0ADF184C18F4423BD2F74241D2BB
:10199000640D43D07F0D38D0E41BC902DB0229431C
:1019A0002B43CF0ADB0A0600B61A9F4104D2641EFD
:1019B000B6197F41B6185F416812800D24180018CF
:1019C000844222DAE80C0021B6197F41B61A9F4101
:1019D00002D2B6185F413F1C40414941F4D3241C58
:1019E00021DD2405B6197F41B61A9F4105D337433F
:1019F000C60737430026012F7041614166463143D7
:101A0000F0BC7047FCD1F74205D20020C143490524
:101A10004908F3E704D00020C143F1E77F0DFAD075
:101A200000206146ECE72442FAD1401C61410F03DB
:101A3000F6D30020E2E7000080B5124800F043F83A
:101A400011A1016041608160C160016141618161FA
:101A50000EA242628162C162016341630CA2826391
:101A60000DA2C2630164416401BD10B5054800F0D8
:101A70002AF804002068002801D1FFF7DDFF2000CC
:101A800010BD00009CFCFF1F000000002E000000A5
:101A900066616C736500000074727565000000007B
:101AA0007CB504000E00150030002900FFF746FE4B
:101AB00000904543701B0190684603C803C473BD82
:101AC000704700007047704780B5694608806946D6
:101AD00009884A1E6B461A8089B20029F7D101BDD8
:101AE00080B501220121112000F032FA01220121EA
:101AF000102000F02DFA4321112000F0F1FA4321CB
:101B0000102000F0EDFA01BD80B5A24800688021E8
:101B1000490201439F4801609E4800688021890274
:101B200001439C480160C8204000FFF7CDFFBA4840
:101B30000068BA490140B8480160C8204000FFF77A
:101B4000C3FFB74800680100C903C90F002908D1C5
:101B5000B1480068802149020143AF48016000207C
:101B600027E0AD480068802149020143AA4801608E
:101B700088480068A949014086480160C8204000A3
:101B8000FFF7A2FF83480068A64901408148016031
:101B9000A34800680100C903C90F002908D09E4866
:101BA00000688021490201439B480160002000E059
:101BB000012002BD80B5774800689A490140754808
:101BC0000160744800689549014072480160C8206E
:101BD0004000FFF779FF6F480068802189020143C8
:101BE0006C480160C8204000FFF76EFF694800683C
:101BF00080214902014367480160C8204000FFF787
:101C000063FF01BD80B563480068864901406148B3
:101C10000160C8204000FFF757FF5E4800687F4919
:101C200001405C480160C8204000FFF74DFF594863
:101C3000006880218902014356480160C8204000A5
:101C4000FFF742FF53480068764901405148016060
:101C5000C8204000FFF738FF01BD80B54D4800683F
:101C6000704901404B480160C8204000FFF72CFF3D
:101C70004848006880214902014346480160C82065
:101C80004000FFF721FF434800688021890201439B
:101C900040480160C8204000FFF716FF3D4800683B
:101CA000604901403B480160C8204000FFF70CFF3D
:101CB00001BD80B5374800685A4901403548016088
:101CC000554800685549014053480160C82040000C
:101CD000FFF7FAFE2F4800688021890201432D4852
:101CE0000160C8204000FFF7EFFE4D48006801008A
:101CF000C903C90F00290ED0474800688021490256
:101D00000143454801602348006846490140214895
:101D1000016000200DE04048006880214902014335
:101D20003D4801601B4800683E4901401948016078
:101D3000012002BD38B5040008252800451EC0B2A8
:101D4000002826D0200607D51248006880214902C5
:101D500001431048016005E00E4800682F4901402A
:101D60000C4801606400C8204000FFF7ADFE094840
:101D7000006880218902014306480160C8204000B4
:101D8000FFF7A2FE034800682649014001480160B0
:101D9000D3E731BD00F00F4038B5082400251E48B8
:101DA00000681E4901401C4801602000441EC0B26A
:101DB000002820D06D001C4800681A4901401A48CC
:101DC0000160C8204000FFF77FFE174800688021AF
:101DD0008902014314480160C8204000FFF774FEE7
:101DE0000F4800680100C903C90F0029DDD0280091
:101DF00001250543D9E708480068802149020143CD
:101E0000054801600848006806490140064801602D
:101E1000EDB2280032BD000014F00F40FFFFFEFFBE
:101E200010F00F40FFFFFDFF00F00F4070B5040001
:101E30000E0000253100C9B2200080B200F00AF87F
:101E4000002805D16D1CEDB2142DF3D1002000E067
:101E5000012070BD38B505000C00FFF755FE0028C5
:101E600001D1002019E04220FFF764FFFFF721FFB6
:101E7000002803D1FFF79EFE00200EE02800C0B22C
:101E8000FFF758FFFFF715FF2000C0B2FFF752FF22
:101E9000FFF70FFFFFF78EFE012032BDF8B50500FA
:101EA0000F00160000243200D2B2390089B2280097
:101EB00000F00AF8002805D1641CE4B21E2CF2D10F
:101EC000002000E00120F2BD70B504000D001600F6
:101ED000FFF71AFE002801D1002037E04220FFF76B
:101EE00029FFFFF7E6FE002803D1FFF763FE00207D
:101EF0002CE03000C0B2FFF71DFFFFF7DAFEFFF75E
:101F000059FEFFF701FE002801D100201EE043200A
:101F1000FFF710FFFFF7CDFE002803D1FFF74AFEC1
:101F2000002013E0ADB2002D0DD0FFF735FF20707B
:101F3000ADB2012D02D1FFF790FE01E0FFF762FE86
:101F4000641C6D1EEEE7FFF735FE012070BD00003A
:101F500070B504000D0016006DB2002D13D14B4872
:101F6000E4B261110422514340584849E4B262117D
:101F700004235A43895849690122E306DB0E9A403B
:101F8000914341613CE04148E4B261110422514374
:101F900040583E49E4B2621104235A4389584969C2
:101FA0000122E306DB0E9A400A434261F6B2002E9C
:101FB00013D13648E4B261110422514340580068FD
:101FC0000121E206D20E914088433049E4B2621109
:101FD00004235A438958086012E02C48E4B2611186
:101FE00004225143405801680120E206D20E90407D
:101FF00008432649E4B2621104235A438958086011
:10200000802149002000C0B200F044F870BD38B50E
:1020100004000D001D48E4B26111042251434058F0
:102020004069E106C90EC840C00703D469211848B9
:1020300000F096F8EDB2002D13D11448E4B261110E
:1020400004225143405800680121E206D20E91401B
:1020500088430E49E4B2621104235A438958086048
:1020600012E00A48E4B26111042251434058016869
:102070000120E206D20E904008430449E4B2621106
:1020800004235A438958086031BD0000F8E5FF1F5A
:10209000243B000030B42F4A126880239B000400C8
:1020A000E4B26409A34013432A4A13602A4AC0B227
:1020B000431104246343D258A0230124C506ED0E26
:1020C000AC40D450244AC0B2431104246343D258D4
:1020D000C0B2C306DB0E04246343D15030BC70474A
:1020E00030B41C4A126880239B000400E4B26409E7
:1020F000A3401343174A1360174AC0B24311042484
:102100006343D258A0230124C506ED0EAC40D45041
:102110000A00124911400A000F49C0B243110424B9
:102120006343C958C0B2C306DB0E04246343CB58D3
:10213000E021C90019401143074AC0B243110424E9
:102140006343D258C0B2C306DB0E04246343D150AC
:1021500030BC70473880044044E6FF1FFFF8FFFFA3
:1021600038B504000D002A0021000E4800F022F8C6
:10217000FEE738B504000D00210049B2002000F050
:102180009FF9200032BD704710B507480468074822
:10219000E4B2092161434218E4B22100044800F08E
:1021A00009F810BDF83C000004ED00E03CE4FF1F1E
:1021B000583C00000EB400B582B003A900916B46F4
:1021C00002000121034878440A30FEF725F90299FC
:1021D00006B00847511C0000F1B584B00F00AF48AD
:1021E00069468881694610200856002803D00228D5
:1021F00025D012D335E0AA4800688021C9000143E8
:10220000A7480160C02189000F20FFF743FFC021CC
:1022100089000E20FFF73EFF23E0A14800688021DF
:10222000090101439E480160C02189004320FFF756
:1022300031FFC02189004420FFF72CFF11E09848AE
:10224000006880214901014395480160C02189004F
:102250006220FFF71FFFC02189006320FFF71AFFEC
:10226000FFE7694610200856002800D0ADE08D48F1
:1022700000688D4901408B4801608A4800688B499D
:102280000143884801608A480078F321014088486A
:1022900001700020874908708748006887494843D3
:1022A0000221FFF74BFA029004200400E4B2212C33
:1022B00066DA0298E4B22100491C7943FFF741FA3B
:1022C0000500ADB280208001854257DA0298ADB298
:1022D000E4B22100491C6943FFF733FA01900198E9
:1022E000C01B012803DB01983900461A02E001985F
:1022F000C01B4642B6B2002E05D168460580E4B246
:10230000684644803CE030006946898980B2884252
:1023100006D26846868168460580E4B268464480F5
:102320006D1CADB280208001854227DA0298ADB2E3
:10233000E4B22100491C6943FFF703FA01900198B8
:10234000C01B012803DB01983900461A02E00198FE
:10235000C01B4642B6B2002E05D168460580E4B2E5
:10236000684644800CE030006946898980B2884222
:1023700004D268460580E4B268464480641C95E750
:102380005C480078E02101400C006846008880B27B
:10239000000AC006C00E20435649087068460088EF
:1023A0005549087055480078E02101400C00684606
:1023B0004088C006C00E2043504908703C48007851
:1023C0000C2101433A48017066E04D486A461021ED
:1023D0005156042251434058C178F32008404849DF
:1023E0006B4610229A5604235A438958C87000211C
:1023F00043486B4610229A5604235A4380588170F2
:1024000040480068FA218900484302900298102150
:102410007943FFF796F9694608806846008880216D
:102420008901884202DB38486946088034486A4698
:10243000102151560422514340580078E0210140B8
:102440000C006846008880B2000AC106C90E21430C
:102450002B486B4610229A5604235A438058017029
:102460006846018826486B4610229A5604235A4330
:102470008058417022486A46102151560422514327
:102480004058C1780C2008431D496B4610229A56CB
:1024900004235A438958C87005B0F0BDFFFF0000FF
:1024A0003480044004800440FFFFFFF30000010477
:1024B00003A0064002A0064038FCFF1F40420F0068
:1024C00000B540B2002806D1104A12781206FBD59A
:1024D0000F4A11700DE00A4A40B204234343D25818
:1024E00012791206F7D5064A40B204234343D25864
:1024F000D17100BD00A0064001A006400AA0064020
:1025000064E6FF1F44FCFF1FFF1F000004A00640FD
:1025100007A00640F8B5962636010027002596202C
:10252000000106009620400186422EDA00200400B9
:10253000502C28DA93483119405C002821D1282CEE
:102540000DDA0095C24801570D0030005021FFF709
:10255000F5F81E3829004143009D6D1A11E0282C22
:102560000FDB0095BA48614240184F2141560D00DB
:1025700030005021FFF7E2F81E3829004143009D4A
:102580006D18641CD4E75036CCE72F00652F07DBAD
:102590000021002000F08FF90121032000F08BF9C9
:1025A0006320C043874207DA0021032000F083F94B
:1025B0000121002000F07FF96320C043874209DB3E
:1025C000652F07DA0021032000F075F900210020B3
:1025D00000F071F97842F2BD38B5050000249D483D
:1025E000002142560121002000F0BEFA9948002146
:1025F00042560321002000F0B7FA012D0DDB280020
:10260000FEF798FF0022944BFFF7B4F900F024FB8B
:10261000FEF766FF2018040010E0002D0ED568427A
:1026200005002800FEF786FF00228B4BFFF7A2F97A
:1026300000F012FBFEF754FF201A040064208549C5
:1026400000228956401A844205DB64208149002219
:102650008956401A0400012C0BDB6420021B002168
:10266000002000F081FA64220221002000F07CFAB0
:1026700019E0002C0BD5220064320221002000F06A
:1026800073FA64220021002000F06EFA0BE0002CA7
:1026900009D164220221002000F066FA64220021A0
:1026A000002000F061FA31BD10B50024002000F0D8
:1026B000E5F8032000F0E2F8022000F0DFF8012046
:1026C00000F0DCF86423654A0021002000F08EF958
:1026D0006423624A0121002000F088F964235F4AE4
:1026E0000221002000F082F964235C4A03210020CB
:1026F00000F07CF9002201214C20FFF729FC002288
:1027000001219F20FFF724FC002201214D20FFF72B
:102710001FFC002201214520FFF71AFC504800F061
:1027200043FB50492E2000F067FC4F49102000F079
:1027300063FC64220021002000F016FA45480021C5
:1027400042560121002000F00FFA642202210020ED
:1027500000F00AFA3F48002142560321002000F011
:1027600003FA05203B49087000F091FB9622920085
:102770003B49044800F008F8FFF7CCFEFFF72CFFB8
:10278000F2E7000074E9FF1F78B56B46374C2588E7
:102790001D801400621E002C47D00C782300491CB9
:1027A0006C46DBB2DD11645D0470401C6C46DBB22C
:1027B0009D112E00F607F60FA45D0470401C6C46B8
:1027C000DBB25D112E00F607F60FA45D0470401C0D
:1027D0006C46DBB21D112E00F607F60FA45D0470E7
:1027E000401C6C46DBB2DD102E00F607F60FA45D30
:1027F0000470401C6C46DBB29D102E00F607F60FED
:10280000A45D0470401C6C46DBB25D102E00F60720
:10281000F60FA45D0470401C6C46DBB21D00ED0792
:10282000ED0F645D0470401CB3E771BD38B5002442
:102830000F4805680020C0430D49086006200400C9
:102840002800E040C00701D500F0E3FA31BD0000E8
:1028500010E4FF1F18E7FF1F00003940204E000062
:102860001CE7FF1F2D28000075280000321500000E
:10287000A090044080B500F0F5FA01BD10B5040049
:1028800064B2042C07DA012201211A4864B2005D07
:10289000FFF75EFB0EE0042004002000441E40B25F
:1028A000002807D001220121124864B2005DFFF721
:1028B0004FFBF2E710BD38B505000C006DB2042DDA
:1028C00007DA2100C9B20B486DB2405DFFF79FFBEC
:1028D0000EE0042005002800451E40B2002807D065
:1028E0002100C9B203486DB2405DFFF790FBF2E7EB
:1028F00031BD000070E6FF1F38B504000D0064B262
:10290000002C03D0022C55D039D36EE095480068D6
:10291000802149040143934801606DB2002D08D025
:10292000022D12D00BD3042D1BD014D3052D1ED095
:1029300023E0C02189009820FFF7ACFB1EE0C021F6
:1029400089009920FFF7A6FB18E0C02189009D208F
:10295000FFF7A0FB12E0C02189009E20FFF79AFB41
:102960000CE0C02189009F20FFF794FB06E0C02106
:1029700089009A20FFF78EFB00E036E035E07948C9
:102980000068802189040143764801606DB2002D02
:1029900002D0012D06D00BE0C02189000C20FFF7EA
:1029A00079FB06E0C02189000D20FFF773FB00E0F2
:1029B0001BE01AE06B4800688021C90401436948A4
:1029C00001606DB2002D02D0012D06D00BE0C021B8
:1029D00089000120FFF75EFB06E0C021890002208C
:1029E000FFF758FB00E000E0FFE731BDFCB583B026
:1029F00006000F0076B2002E02D17FB2062F0CDB4C
:102A000076B2012E02D076B2022E02D17FB2022F10
:102A100003DBD8218A48FFF7A3FB390049B2300015
:102A200040B2FFF769FF8748006887494843401074
:102A300001900198000C0399FEF783FE040000202A
:102A40000500A4B220002841012801DB6D1CF8E735
:102A5000EDB2082D03DBF3217948FFF781FB0198E4
:102A6000E8400399FEF76DFE040076B2002E03D015
:102A7000022E17D00BD320E00498A4B22100491CE9
:102A800048436421FEF75DFE6946088015E004981E
:102A9000A4B22100491C48436421FEF752FE694656
:102AA00008800AE00498A4B22100491C484364212C
:102AB000FEF747FE69460880FFE7644876B20421C6
:102AC000714340587FB20821794340185F4976B27C
:102AD0000422724389587FB208227A438918C96850
:102AE00004229143C160594876B204217143405891
:102AF0007FB20821794340182821C16054480068FA
:102B000054490140524801605148006880214904FD
:102B100001434F480160EDB26907490F082008439F
:102B20004A4976B20422724389580860A4B24748E1
:102B300076B20421714340588460444876B204213F
:102B4000714340587FB2082179434018694609888B
:102B5000016100203D4976B20422724389584860E1
:102B600005B0F0BD3C800440F8B505000F0016002C
:102B700000246DB2002D02D17FB2062F0DDB6DB2A5
:102B8000012D02D06DB2022D02D17FB2022F04DBE3
:102B9000FF2130312A48FFF7E3FA6DB2002D03D050
:102BA000022D11D008D317E0652E04D39A214900D5
:102BB0002348FFF7D5FA0FE0652E04D39C21490086
:102BC0001F48FFF7CDFA07E0652E04D39E21490088
:102BD0001B48FFF7C5FAFFE71C486DB204216943A3
:102BE000405880680400002CF6D06DB2002D03D050
:102BF000022D11D008D317E02000401C704364213F
:102C0000FEF79FFD00900FE02000401C7043642100
:102C1000FEF797FD009007E02000401C7043642100
:102C2000FEF78FFD0090FFE708486DB2042169436D
:102C300040587FB208217943401800990161F1BDE5
:102C40008C3B000038FCFF1F40420F0058E6FF1F7E
:102C500004800440FFFFFFFC012252054B1850D2B4
:102C6000D3424DD25B0D4BD030B41C05A143550867
:102C70002943D40AE41E1B195B0801D300184941FB
:102C80001B059C466C19091B001849410018494155
:102C9000641900239202491B07D46D081DD2091B39
:102CA000641900184941491BF7D56D080AD2091962
:102CB000641B00184941491BEFD56D08F7D301E0AB
:102CC000520817D0C01861419B1AAC410018494105
:102CD000801AA941F4D452080AD0C01AA1419B1805
:102CE0006C4100184941801AA941E9D45208F4D135
:102CF0005B1C6C415808E20710436108614430BC1A
:102D000070470020590DFBD0C943D342F8D802B513
:102D100000F08AF902BD00000121C206D20E9140E6
:102D2000994A116070470121C206D20E9140974A1C
:102D30001160704770B4964C40B210254543641939
:102D4000A568802464042C43914D40B2102646436C
:102D5000AD19AC601C02240A8D4D40B210264643CA
:102D6000AD19AC608A4C40B2102545436151884C86
:102D700040B21025454364196260864C2478802552
:102D80002543844C2570824C40B21025454364197C
:102D9000E5688024E4052C437D4D40B2102646436F
:102DA000AD19EC6070BC704710B504007A4804603F
:102DB00000F08EF80028FBD000F002F8002010BDD3
:102DC00000B583B096208000019001200090072379
:102DD000714802687149002000F05BF96D48007885
:102DE0004006400E6B4908706D480068400040087E
:102DF0006B4908600020FFF78FFF1E20FFF793FF4D
:102E000068490720FFF746F967490620FFF742F9AE
:102E100007BD80B565480021405604281BD103201A
:102E2000624908701E20FFF77EFF96239B005A48D8
:102E300002685A490020FFF77DFF80205C49086046
:102E40005748006880210906014355480160002069
:102E5000FFF762FF05E01E20FFF765FF02205349E0
:102E6000087001BD80B54E480068400040084C49DC
:102E700008600020FFF750FF01204C4908704D48C2
:102E800000688021490401434A48016001BD80B5C2
:102E90000420464908700020C043454908601E20B0
:102EA000FFF73AFF41480021405601280FD03F4824
:102EB000002140560228F5D104203C49087000202A
:102EC000C0433B4908601E20FFF726FFEAE701BD2B
:102ED00010B582B00024002069460870FEF700FE9D
:102EE00080211220FEF7A2FF002804D13248FFF70C
:102EF00061F9002047E0322000F0A8F90B220121FF
:102F00006846FEF7CBFF002804D12C48FFF752F9A2
:102F1000002038E0684601782948FFF74BF9294836
:102F200001782948FFF746F968460078212829D119
:102F30000020040020002349097880B289B2884229
:102F40001BD22248A4B202216143401841781F4895
:102F5000A4B202226243805C80B2FEF767FF0028C1
:102F600009D11A48A4B202216143415C1848FFF715
:102F700021F9002007E0641CDCE71648FFF71AF986
:102F8000012000E0002016BD00E100E080E100E04B
:102F9000008100400010024048FCFF1F12F10F406A
:102FA0000C810040020102001201090019E7FF1F15
:102FB000A090044008810040DC3D00004C3E000031
:102FC0001C3D00001AE7FF1F743D000074E6FF1F60
:102FD000F43D0000403D000010B5040020008021B9
:102FE0008900FEF7ABFB002903D01E210B48FFF739
:102FF000B7F80B48046010BD38B504000D00084850
:1030000000680849884203D030210448FFF7A8F837
:10301000044864B204216143455031BDF43B0000D3
:1030200008ED00E000E0FF1F1FB500F025F92121A9
:1030300001601FBDF8B505000F00A8094607760F0F
:10304000202046436846290010398906890E082247
:1030500051434170684640783018040068460821A2
:1030600079436118491E0170684600782100C9B291
:1030700088420DD3002200212000C0B2FEF768FF75
:10308000812149002000C0B2FFF704F8641CEBE77F
:10309000F1BDFEB504000D00694620200F567FB239
:1030A000012F01D101260AE07FB2022F01D10226B1
:1030B00005E07FB2002F01D1042600E000267FB298
:1030C000012F05D14848854202D34848A8421CD266
:1030D0007FB2022F09D14448854206D34448A84212
:1030E00003D3A807800F03280FD17FB2002F08D188
:1030F0003D48854205D33F48A84202D328008007B7
:1031000003D060213C48FFF72BF809988021090281
:10311000884203D362213848FFF722F83748006815
:10312000802149000143354801603548006802218B
:103130000143334801600020324964B208553248E7
:1031400064B2102161434018816880204004084324
:103150002D4964B210226243891888602A4864B2FB
:103160001021614345500198274964B210226243FF
:10317000891848607FB23805C021890301407FB2B9
:103180007804C022D20202400A43204810431E495C
:1031900064B2102262438918C86009980002000ACC
:1031A000194964B210226243891888606846007A1F
:1031B000C0B24009313080210143124864B2015548
:1031C00013496846007AFEF765FF3100C9B228004E
:1031D000FFF730FF0B4864B2005D4006400E09491E
:1031E00064B20855F7BD000010F00F4013F10F4016
:1031F00012F10F4010F10F40BC3A00004080044033
:103200003C800440001002400081004080000860C3
:103210000001010010B50400002C16D080204004ED
:10322000844203D329210F48FEF79AFF00200E495C
:1032300008600E48046000200D49086005200A4916
:10324000086009480068C003FBD510BD10B5040034
:103250002000441E002804D006480068FFF7DAFF6B
:10326000F6E710BD503A000010E000E014E000E086
:1032700018E000E03CFCFF1F80B50248FEF723FC8D
:1032800002BD000024FDFF1F30B50400874864B272
:1032900004216143455A64B2012C00DA05E164B2AD
:1032A0000D2C00DB01E1ADB2652D03DA0020B4493D
:1032B000087074E0ADB2C92D03DA0120B04908707E
:1032C0006DE0ADB2FF202E30854203DA0220AC491A
:1032D000087064E0ADB2FF209230854203DA03202B
:1032E000A74908705BE0ADB2FF20F630854203DAF3
:1032F0000420A349087052E0ADB2A248854203DA27
:1033000005209F4908704AE0ADB26948854203DA5A
:1033100006209B49087042E0ADB26648854203DA58
:103320000720974908703AE0ADB29748854203DA22
:1033300008209349087032E0ADB29448854203DA20
:1033400009208F4908702AE0ADB29148854203DA1E
:103350000A208B49087022E0ADB28E48854203DA1C
:103360000B20874908701AE0ADB28B48854203DA1A
:103370000C208349087012E0ADB28848854203DA18
:103380000D207F4908700AE0ADB28548854203DA16
:103390000E207B49087002E00F20794908704348ED
:1033A00064B204216143405A75490978491CFEF70B
:1033B000C5F90500ADB2292D03DA00207049487027
:1033C00073E0ADB2512D03DA01206D4948706CE015
:1033D000ADB2792D03DA02206949487065E0ADB2DB
:1033E000A12D03DA0320664948705EE0ADB2C92D15
:1033F00003DA04206249487057E0ADB2F12D03DAD8
:1034000005205F49487050E0ADB2FF201A30854278
:1034100003DA06205A49487047E0ADB2FF20423037
:10342000854203DA0720564948703EE0ADB2FF20DE
:103430006A30854203DA08205149487035E0ADB260
:10344000FF209230854203DA09204D4948702CE074
:10345000ADB2FF20BA30854203DA0A2048494870ED
:1034600023E0ADB2FF20E230854203DA0B2044496D
:1034700048701AE0ADB24B48854203DA0C2040494F
:10348000487012E0ADB24848854203DA0D203C494D
:1034900048700AE0ADB23B48854203DA0E20384955
:1034A000487002E00F203649487030BD0CE6FF1F1F
:1034B000BD0200002103000010B50400200040B24E
:1034C000FFF7E2FE39480068802189000143374850
:1034D00001602B4800780007294949780904E02257
:1034E000D2020A400243324802608120314908700A
:1034F000242031490870BA203049087030480078DB
:10350000C006FBD42E480078C0B20C210140082927
:10351000F8D12C4864B20421614340188078C00679
:10352000C00E29490870274864B20421614340183D
:10353000C078C006C00E40210143244801702048D5
:1035400000788006FBD51E4800784006FBD5022097
:103550001A4908701A480078C0B20C2101400C29A1
:10356000F8D11B48006880214902014318480160D6
:10357000144864B204214C43005BC0B210BD00008B
:1035800040E6FF1F5902000085030000E903000028
:103590004D040000B104000015050000790500008D
:1035A000DD050000090200003102000038800440FF
:1035B0004480044000500640014006400040064060
:1035C000064006400CE6FF1F04400640054006404A
:1035D000048004403C3C3C3C37322D2D2828281EDA
:1035E0001E1E191914140F0F0F0F0A0A0A030303E2
:1035F00002020202010101010000000000000000BF
:1036000052455300000000000052455300000000E6
:1036100000004E4D49000000000000486172644601
:1036200061756C7452455300000000000052455310
:10363000000000000000524553000000000000524E
:1036400045530000000000005245530000000000F8
:103650000052455300000000000052455300000096
:10366000000000535643616C6C000000524553004B
:1036700000000000005245530000000000005065AB
:103680006E6453560000005379735469636B0000F5
:10369000444D41300000000000444D413100000025
:1036A0000000444D41320000000000444D41330011
:1036B00000000000444D413400000000005245531A
:1036C0000000000000004654464100000000004C8D
:1036D00056445F4C565700004C4C57000000000009
:1036E00000493243300000000000493243310000FD
:1036F0000000005350493000000000005350493191
:1037000000000000005541525430000000005541B7
:103710005254310000000055415254320000000064
:10372000414443300000000000434D503000000091
:10373000000054504D30000000000054504D310046
:103740000000000054504D3200000000005254436D
:103750000000000000005254435F536563000050B6
:1037600049540000000000004932533000000000BE
:103770000055534230000000000044414330000037
:103780000000005453493000000000004D43470042
:1037900000000000004C50544D5200000000524503
:1037A00053000000000000505441000000000000E1
:1037B0005054435F505444000000000000F00FF8E4
:1037C00040F00FF880F00FF8C0F00FF800F10FF89C
:1037D00000000A1D300003004000020042000309FF
:1037E0004400030A48000203500002066000010082
:1037F000800002188800010A9400010DC800011A17
:10380000DC00011F000100000090044000A0044003
:1038100000B0044000C0044000D0044000800340D9
:103820000090034000A0034000A0064000B0064006
:1038300000C00640646566670D81110009030CD065
:103840001240173F185019031A783200A00A63E09B
:10385000ACFF650C6600670029142C1E2A007E0C44
:103860007F16802A814E8261836F847B8586868E57
:10387000879788A489AF8AC58BD78CE88D204A00AA
:10388000491347084B144C17460522992303A604F5
:103890009B009CA0AB069E119F0200000204010148
:1038A0004CFCFF1F9CFCFF1F4CFCFF1F4CFCFF1F30
:1038B0004CFCFF1F15E7FF1FFCE6FF1F0000000088
:1038C00000000000000000000000000000000000F8
:1038D0000000000000000000000000006401310052
:1038E00080B500F0A5F800F03AF800F005F8FEF712
:1038F0004AFCFEF7D9FEFEE780B53D480078000798
:1039000005D53B48007808210143394801700B2058
:10391000FFF7D2FD37490860364800683649096824
:10392000090F491CFDF70DFF344908603348006852
:10393000FA218900484332490860314800682E491D
:103940000968090C4907490F491CFDF7FAFE2D4982
:103950000860E12149020020FEF73EFC01BDF0B500
:1039600083B02948294988420FD0002004008220D2
:103970004000844209D2254804216143405822492D
:10398000042262438850641CF1E71F48FFF724FBC0
:103990001F4807001F4805001F4801900198401B61
:1039A00004002000441E002804D0287838706D1CC4
:1039B0007F1CF6E719480600194800900098801B04
:1039C00004002000441E002803D000203070761C24
:1039D000F7E714481449154A531A1C0023005C1ECB
:1039E000002B04D00B780370491C401CF6E7F7BD90
:1039F00002D0074038FCFF1F4480044040FCFF1FFA
:103A00003CFCFF1F44FCFF1F00E0FF1F0000000004
:103A100010E4FF1FD4350000E03800001CE7FF1F52
:103A20009CFCFF1F9CFCFF1F6C3E00006C3E0000D6
:103A30000648006804490860044800680C2188436F
:103A4000024908607047000034FCFF1F00810440F9
:103A5000443A5C6D313839395C446F63756D656E1D
:103A600074735CB5A5C6ACBBFAD1A7CFB05C506F80
:103A70007765726564206279205A5A535CD0A3D46A
:103A8000B0D6C7C4DCB3B5B4F3C8FC5CC8A8D6D8FC
:103A9000CBE3B7A8362E3028B3ACBCB6B7C9BFA8A5
:103AA000B0E6295C436869705C5372635C4D4B4CB3
:103AB0005F5379735469636B2E630000443A5C6D05
:103AC000313839395C446F63756D656E74735CB5FC
:103AD000A5C6ACBBFAD1A7CFB05C506F7765726555
:103AE00064206279205A5A535CD0A3D4B0D6C7C49C
:103AF000DCB3B5B4F3C8FC5CC8A8D6D8CBE3B7A890
:103B0000362E3028B3ACBCB6B7C9BFA8B0E6295C26
:103B1000436869705C5372635C4D4B4C5F646D61CC
:103B20002E630000443A5C6D313839395C446F6370
:103B3000756D656E74735CB5A5C6ACBBFAD1A7CFC5
:103B4000B05C506F7765726564206279205A5A5371
:103B50005CD0A3D4B0D6C7C4DCB3B5B4F3C8FC5CA6
:103B6000C8A8D6D8CBE3B7A8362E3028B3ACBCB69D
:103B7000B7C9BFA8B0E6295C436869705C5372633B
:103B80005C4D4B4C5F6770696F2E6300443A5C6D0F
:103B9000313839395C446F63756D656E74735CB52B
:103BA000A5C6ACBBFAD1A7CFB05C506F7765726584
:103BB00064206279205A5A535CD0A3D4B0D6C7C4CB
:103BC000DCB3B5B4F3C8FC5CC8A8D6D8CBE3B7A8BF
:103BD000362E3028B3ACBCB6B7C9BFA8B0E6295C56
:103BE000436869705C5372635C4D4B4C5F54504D3D
:103BF0002E630000443A5C6D313839395C446F63A0
:103C0000756D656E74735CB5A5C6ACBBFAD1A7CFF4
:103C1000B05C506F7765726564206279205A5A53A0
:103C20005CD0A3D4B0D6C7C4DCB3B5B4F3C8FC5CD5
:103C3000C8A8D6D8CBE3B7A8362E3028B3ACBCB6CC
:103C4000B7C9BFA8B0E6295C436869705C5372636A
:103C50005C6D6973632E63000A2A2A2A2A646566EA
:103C600061756C745F69737220656E7465726564EA
:103C7000206F6E20766563746F722025642A2A2A6D
:103C80002A2A0D0A0A257320496E746572727570AE
:103C90007400000070B40121002213E00468001DCC
:103CA0000C4202D04D466D1E64192260241D1B1F5C
:103CB000042BFAD225009E0701D52280AD1C0B40B3
:103CC00000D02A700368001D002BE7D170BC70473C
:103CD00010B5074979441831064C7C44163404E089
:103CE000081D0A68891888470100A142F8D110BD53
:103CF0007400000080000000417373657274696F86
:103D00006E206661696C656420696E202573206190
:103D100074206C696E652025640A00000A4765748A
:103D20002049442073756363657373A3AC53454E98
:103D3000534F522049442069732030782578000081
:103D40000A4F56373732352052656769737465728A
:103D500020436F6E666967205375636365737321D3
:103D60000000000031FFFFFF801500001CE7FF1F6F
:103D7000000000000A436F6E66696720526567693C
:103D800073746572204E756D6265722069732025AB
:103D90006420000000F00BF8002801D0FFF798FF26
:103DA000002000BF00BFFEF77FFC00F002F80120FA
:103DB000704780B500F002F801BD000007463846A4
:103DC00000F002F8FBE7000080B500BF00BF024A28
:103DD00011001820ABBEFBE7260002000ABEAFB8F8
:103DE000E63A53434342D0B4CAFDBEDDB4EDCEF350
:103DF000000000000ABEAFB8E63AD0B4BCC4B4E6D6
:103E0000C6F730782578CAA7B0DC0000686A6C7401
:103E10007A4C00006E616E004E414E00696E660085
:103E2000494E460038B505000C00200000F006F8A9
:103E3000A04200D00025280032BD000080B5024914
:103E4000FEF797F902BD00BFD8E6FF1F0ABEAFB864
:103E5000E63AB6C1C8A14944CAA7B0DC00000000D8
:0C3E600000BF00BF00BF00BFFFF794FFD1
:103E6C000000000000000000000000000000000046
:103E7C00000000000000000000000000FFFFFFFF3A
:103E8C00FFFFFFFF0000000000000000000000002A
:103E9C000000000000000000000000000000000016
:103EAC000000000000000000FFFFFFFFFFFF00000C
:103EBC0000000000000000000000000000000000F6
:103ECC0000000000000000000000000000000000E6
:103EDC0000000000000000000000000000000000D6
:0C3EEC00000000000000000000000000CA
:0400000500003E6158
:00000001FF
